%!PS-Adobe-2.0 EPSF-1.2
%%Save file as: BEVBARSMALL.EPS        Source: FILESERV@SHSU.BITNET  
%%Creator:Icon
%%Title:BevBarSmall.eps
%%Origin:0 177
%%BoundingBox: 0.000 0.000 148.000 152.000
%%EndComments
/picstr 37 string def
gsave
148 152 scale
148 152 2
[148 0 0 152 neg 0 152]
{currentfile picstr readhexstring pop}
image
AAA9AAAAAAAAAAAAAAAAAAAAAAAAAAAAAAAAAAAAAAAAA9AAAAAAAAAAAAA969AA
A9AAA9A999666666666666666666AA66A666666666A6A6666666666666666666
66666666666666666666A9AA9A9AAAAAAAAAAAAAAAAAAAAAAAAAA9AAA9AA999A
A99A99AAAA9AA9AA99AA99AAAAAA956A666A666AA66A6A6AAA6AA66A666A666A
666A666A666A666A666A666A6666666A666AA66AA9AAAAAAAAAAAAAAAAAAAAAA
AAAAAAAAAAAAAAAAAAAAAAAAAAAAAAAAAAA9A9AAAAAAAAA9A966666666666666
AA66AA666A666666666666666BBBAA666666666666666666666666666666AAAA
AAAAAAAAAAAAAAAAAAAAAAAAAAAAAAAA955AEFEAAAA99AAAAAAAAA9AAA9AAAAA
AAAA9A6A6A666AAAAA6A6A6AAAAAAAAA6AAA6A6AAA6116BBBBBA666A6A6A6A66
6A666A6A6A6A666AAAAAAAAAAAAAAAAAAAAAAAAAAAAAAAAAAAAA50156AAEFEAA
AAAAAAAAAAA9A9AAA9AAAAAAA966666666A666666AAAAAAAAAA6A6AA66ABBB61
116ABBBBBA66666A66666666666666666666AA9AAAAAAAAAAAAAAAAAAAAAAAAA
AAAAAAEA944556ABEEEAAAAAAA9AAAAAAAAA99AAAAAA996A666AA6AAA66A6AAA
AAAAAAAAA66A66BBBA655056BABBBBAA666A666A666A666A666A6666AAAAAAAA
AAAAAAAAAAAAAAAAAAAAAAAAEEAEA95455AAFEEEAAAAAAAAAAAAAAAAAAAAAAAA
A966666666A6A6A6AAAAAAAA6AAA6A6AABBBBAB666666ABBBBBA666AA6AA6666
666666666666AAAAAAAAAAAAAAAAAAAAAAAAAAAAAAAAEEEAEAA9995AAFAAEAAA
AAAAAAA9AAA9AAAAAAAA9AAAAAAAAAAAAAAABABABABABABABABABBBBBBBA6A6A
66ABBBBAAAAAAAAAAAAAAAAAAAAAAA66AEAEAEAEAEAEAEAEBEFEBEFEBEAEEEEE
AEAEFEAEAAAAAAAAAEAEAEAEAEAEBEAEAEAEAEAAA9BBBBBBBBBBBBBBBBBBBBBB
BBBBBBBBBBBBBBBBBBAAA6BBBAABBBBBBBBBBBBBBBBBBBBBBB66AAAAAAAAAAAA
AAAAEAEAEAAAAAAAAEEAEEFFFFFFEAAAAAEA9AEEAAAAAAAAAAAAAAAAAAAA996A
A66A666AAAAAAAAAAAAAAA6A66BBBBBBBBFFBBBBAA6AA566BBA6666666666666
66666666AAAAAAAAAAAAAAAAAAAAAAAAAAAABEEEBAFFFFFEEEAAAEA55AAEAAA9
A9A999555969A95569666666666AAAA66AAAABAAAAAAAABBBBBBBBBBBBBBAA6B
A566BBB666666666666666666666AAAAAAAAAAAAAAAAAAAAAAAAAAAAFFEAAFFF
FFFEEEAAAE955AAAEA9AAA9A9A999A9A99959A6AAAAA6AAAAAAAAAAAAAAAAAAA
6BBBBBBBBFBFBBBAAA69556AA6BAAA6A6A66666A66656666AAAAAAAAAAAAAAAA
AAAAAAAAAAAAFEAAAEFFFFFEAAA9A955AE95AAA9A9AAA9A9A9A9696969AAA6A6
AAAAAAAAABAAAABABBABABBBBBABBBFBBBA6A665116A566BAAAA666666666666
6666AAAAAAAAAAAAAAAAAAAAAAAAAAABEAAAABEFFFEAA9959455A9815AAAAAAA
AAAAAAAAAAAAA9BAAABAAAAABABAAAAABABABABABBBA7ABBBBFFBA6565511166
5166BAAAAAAAA66AAA6A6666AAAAAAAAAAAAAAAAAAAAAAAAAAAEAAAAAEEFFEAA
A955400059045AAAAAA9A9A969A99969696666666666AA66666666666AAABA66
ABBBBFFBBBAA600111251116BA6666666666666666669A9AAAAAAAAAAAAAAAAA
AAAAAAA99AAAAFFFFFEAAA940000540456AAAAA9AA99999599959A666A6A6A6A
6A6A6A666A6A6AAA6666A6ABFFFFBBBA6000001011157A6A6666666666666566
AAAAAAAAAAAAAAAAA9AAAAAAA9A95AAAAFFFFFFEAEA400004404056AAAA9A9A9
A9A999696A66666AA66A666666666A666A66A666BA6BFFFFBBBBA50010001011
6BA66666666666666666AA9AAAAAAAAAAAAAA9AAAAAAAA9956AAAAFFFFFFEEA9
00150000005AAAAA999599969595996A666A6AAA6A6A666A6A6AA6666516BAAA
BABBBBBBAA401500000126AAA666666666666666AAAAAAAAAAAAAAAAAAAAAAAA
AA9515AAAAAA99AEFEAA50040000005AAAA9A9A9A9A95969596666666A666666
6A666AAAAA666155666BBA556BBBA5001000000116A66A666666666666669AA9
AAAAAAAAAAAAAAAAAAAAAA9458156FE9459AEE95419400000155AAAAAA959999
9A959A6A6A6AAAAA6A6AAA6AAA6A6A6A65143A7AA5016BBA65016540000016AA
AA6666666666666AAAAAAAAAAAAAAAA9AAAAAAA9AA95587EE944046EA9500005
50000455AAA9A9A9A9599A69996666AAAA666666A6666A666A6BA524BEF62021
7AA650001150001116666666666666666666AAAAAAAAAAAAAAAAAAAAAAA9A994
54BEFAA555FEF840000154000556AA9A9A9A95959596996AA6AA6A6A666A666A
666AAA655015BFFFFA66BBFD510101640001266AA666666666666666AAA9AAAA
AAAAAAAAAAAAAAA9594015FFFFFA9AFBFD545545A80000596AAAAAA9A96959A9
5966666AAAA66666A6666AA6A6650022BFFFFBBBFBFE651666B4000011666666
666666666666AAAAAAAAAAAAAAAAAAAAAAAA994041FEFFFFFFFFFEAA95AAE800
0000AAAAAAA99A959A999ABABABABABABABABABABABAAA650002FFFFFFFFFFFF
7ABABBB90000156ABABAAA6666666A66AAAAAAAAAAAAAAAEAAAAAAA9940001FF
FFFFFFEFFF6EFEFEA80000056AAAAAA9A999599999666666666AAAAAAAAA6AAB
66650001BFFFFFFFBFFFABBBBBB4000011666666A66666666666999A9A9AA9AA
AAAAAAAAAAA9540001FFFFFFFEBFFF9BFFFFE40000055AAAA995559A95969566
6666666A666A6666666A66500011BFFFFBA5BFFFA7BBBBA40000016666666566
66666666A96AA9A9AAAAAAAAA9AAAA694001A5FFFFFE95FFFFE5AEFEA4000000
59A9A99559A959595966666666666A6A6666666A65000166BFFFFA56BFFBA167
BBB00000016666666566666666669A959A9A9AAAAAAAAAAAA955400009BFFFE9
5BEEE95456AAE00000019AA9AA9559999A999A66666A666A6A6A6A6A6A665500
00007FFFA56BFBA665166AA00000016666666566666666669999AAAAAAAAAAAA
A9AAAA540000007FFE95BFFE559455AAA0000005A9A9A9555959999959666666
6666666666666666510000007FBB56BFFA66A516665000001666666665666666
66669599999A9AAAAAAAAAAA99944000007FFE95AAEA99A5055A8000001A999A
A99555A6959559666666666A666A666A6666650000003FFBA12BA55110156640
000166666666656666666566A9A9AAA9A9AAAAAAAAA9A9A90000007FFFEAAFFE
9940196A40000069A9A9AA9559A99995696666666666666A666666666A010000
3FFFBBFBBBBA526A66000001666666666566666666669AA99A999A9AAAAA9AAA
9AAA4540007FFFEFFFEEAA9AAAA9000001599A999A95599599955A6666666666
6A6A66666A666A5100003FFFBFFFBABA6ABA6900000166666A6665656666666A
99A999A9A9AAAAAAAAA9A9699000007FFFFFFFE959AEAAA800000199A9A9A995
595959595A6666666666666666666666666010007FFFFFFFBA67BBAA60000002
66666666656666666666999A999A999AAAAAAAAA9995505000BFFFFFFFEAAAEE
AA900000059A9AAAA9955599599594666666666666AA666A6A66650150007FBF
FFFFFBBBBBAA6000001666666666656666666651A9A9A9A9A9A9AAAAAAAAA959
405000BFFFFFFFFFFFFEAAA000000559A9A99969599965595466666666666666
66666666664000007FFBFFFFFFBBBBA6A0000016666666666566666666519A95
9A999AAAAA9AAAAA9A998400007FFFFFFFFEFFEEAA90000005999AA99A955995
9995546666666666666A6A6A6666665000003FFFBFFFFBBBBA6A500000116A6A
66666566666565519999A999A9AAAAAAAAAAA969A400006FFFFFFEEAAAA9AA50
000015A9AAA9A9555569A955556666666666666666666666666400012BFBBBBB
A666666650000016666666666526666666569995959699AAA9AA99AA95959400
0147FFFEA955559A9A800000199A999A9995555595555566666666666666666A
66666665000152BFBBB65115666A40000026666666666566666565515995A969
A9AAA9AAA9AAA96959000055BFFEEA5459A9A940000069A9A9A9A95955595955
50666666666666666666666666660115552BBBBA652666650000026666666666
65556665665199959A999AAAAAA9AAAA99959541545506EEEE955AA994000015
9A959AA99A9559559555556666666666666A6A666A666515116515017BBA6566
6550000166666666666665656665655199595969A9AAAAAAAAA9A95445415455
002AAA95599500000059A9A999A9A95555555955546666666666666666666656
00055111150006BA6566500000006666666666666566666665509599999AA9AA
A9AA99A95540444544440041AA95544000000015999A99AA9595559595554066
6666666666666666656510155515010000166150000000000166666666666565
6665656599595999A9AAA9A9A9555450055945400000055540000000000059A9
A999995555555955596666666666666666666561511246024000000011000000
000400016666666665666666552699959A9599999AA95A559594454690404000
000000000000040000059A999995595555555566666666666A66656A66565155
425050000000000000000030000001666666656666656551A969A959A9A9A954
595569559945584004000000000000009000004459A9A9555959555554666666
66666665111666BA266A02951001011000000000009000011116666661666665
565095999999999941A455AA954559418A94000050000000400280000541415A
9995559595554066666666666406516565650115014756400160000010000340
0010150016666526656555505555596A59555465555550051405829A80005000
0000000E0000541514455955555555555566666666666696B555211115100252
E6500040000000003A000155251111266166666666569995999599995E905544
4555500191E554400000000000B8004059555440055555555555556666666666
696415651555151001607950100000000002E005141656651011656555655551
995559596AA95055645559590000A02E5410000000000B800054565555500054
55555555546666666666A402A55121216A5001601B9510000001003F00121126
516665110126665556509595959A9AE40599445550A540004047D44000401100
FC00054105959595540155555555406666666666A005651516566500106402B9
1000100017F0000015155105615510155555555059595959559015591415A455
400454007E404410006F9054005405A405559450055955555466666666665066
6611165112500110101FA6515127FA1511025112611166665061155555119995
99999580A95545595555400054404AF95551AFD40640554141A005A596941055
5555556566666666016565016150165011551151BFAAAFFE0115010512126516
655561141565551059555959594595A94545501500005444445EFFFE94411544
400555A415A55550451555555465666665690156A541110025101161101155AA
A500111101101526652066661011015515119555959658059556805400944015
94405459944541004081154451A455954540104555554465666666A516966650
1000550011650025566565010011111101656551555510140125551555555959
95599559501441AA400568452956946800000510454515A49599551405055555
5566666666566555262011026610127511255255551100111112611261556661
50010111565199555A9995955A95541505554005A94045555950068044550595
55915599A99004005555556566666565A5566510100565101669115151151116
401111166115515526BA600110151511555555A565A45559101419580056A945
4155505415406AA555996A8404155A9000005555555666666556651266100011
5400566651111555105251BFBBA7666B56115106500110151111959595955AA9
555554004584405A9594545555445645BFFFFEEFFEEA45555540005555555465
6566502A6515551505106000212561102651516A15BFFFFFFFFFFF6550110000
15155151595555555A9545545504004000156959506950015409BFFFFFFFFFFF
94040400000555555466666651266551211500000110116155506551110506BF
FFFFFFFFFF511111000111121511555559955A95555195040150055554554459
45504545BFFFFFFFFFFF85445540005555554555556665565525105100011100
5669015015016A5256BFFFFFFFFFFF1110050000111515115955559915551954
540405150045A955501405599985BFFFFFFFFFFE555015000001555540566666
651124015110001611011A6555111116511212BFFFFFFFFFFF21151100001111
11515555555544504050400054500446A44001650651500ABFFFFFFFFFFE5555
4000000555554066656565012015511000151001566501116516516416BFFFFF
FFFFFF561565400011151511555559155169541400005410056A955016A56581
556ABFFFFFFFFFFE595400000014155540666666511166501110005111117A65
51566626526116BFFFFFFFFFFF66110000002111151155559550015000005400
154056EA954119A5A9915545FFFFFFFFFFFE5555000000105555446556651011
5001115000111016A66510656565516642BFFFFFFFFFFE655501000001151510
55555510545400195000001556AAA945556569555645AFFFFFFFFFFE94540000
000441554056666510256100156000111567BBB60656656666565656BFFFFFFF
FB61500000000101511155559540154500144000040556FF9955959555959646
555AEFFFFFFE555010000040055540555565002611001150001001116A6A6166
66656566165155667BBBF9655041000011151111555555045954005410001400
059A69545559A5559519540554596AA9655550040014155540656665112A1541
1110006510166679651666666666111116661216A56612510000151151115555
5540595544154000981145456995599AA96599054445AA5545A5558580040000
055541556565002A6610150001655111166551256AA66A6625511666111A5655
6910000015015511555554545A9504044001584154056940955AA96999256555
4454595995A954000014045540656665651652100250016552666525565656A6
6666165111115112056652000000151111115555555545460001400099555955
95955596A9AA9555815159444045555504000000404540556565101616000011
0065555A666655156A6555152661152610152565550000001110111155555540
05144004000059559A56A56945A9555559696955645555291454000000040055
446565655005110001000066666666666512A515516A26661161116216515100
0000101011115555559400004000400099556AA695944699455A995565444554
42559540000000000455415515555100000001000069157AAA655016AA666BA6
26651515252155550000000000101511555555551401440000046455AAAA5594
556E9AAE59556954545414659400000000005455405555556514111000000161
66AAAA65615516667A6656652516556556510000000001111111555555550441
40000005545AAAAAE54554555AA99556A4555496994144500000000058554055
516556140110001011656ABABAA51011252A656236612115A656111550000000
0019111055555559440444000015655AAAAAA95415646AA569AA955555696A51
44540000000018540455525516510150000026656A6AA6B66212655666666A56
551166665215100000000125110155555905454040004019A5AA9A9AAA944554
859599595A5556949A5154400000000058544055556511511100010015666A6B
BAAAA51155516565652A5151643621101000000001111511


grestore
