%!PS-Adobe-2.0 EPSF-1.2
%%Save file as: JOESMALL.EPS           Source: FILESERV@SHSU.BITNET  
%%Creator:Icon
%%Title:JoeSmall.eps
%%Origin:0 177
%%BoundingBox: 0.000 0.000 161.000 177.000
%%EndComments
/picstr 41 string def
gsave
161 177 scale
161 177 2
[161 0 0 177 neg 0 177]
{currentfile picstr readhexstring pop}
image
FFFFFFFFFFFFFFFFFFFFFFFFFFFFFFFFFFFFFFFFFFFFFFFFFFFFFFFFFFFFFFFF
FFFFFFFFFFFFFFFFC0D400554005540055400554005540055400554005540055
400554005540055400554005540055400540D55150005550001556A565115550
500011B9515555555551555165AA51515550001001555551550040C444440044
444444499454444444444445ED445945945944554459A9544459444444445459
44584440C101000000000115554015011555000016AA5555565556555555556A
55555550000001155651550100C444400040400044444454445454404045EE99
95959995955584559955445940000040445545940000C1500000100001501115
55105554000011AAAAA555A56AA55555556555556540000000115551900000C4
44400444400444444444444594000444AED99999999EE9554444594544594400
0044444445944000D5110001000001000151555515650000016AAA5556555AA5
5555155516515500000001555402550000D44440444000444044544454449400
00445A955459955AA5445454545A944440000004599405944040D01150100000
100051511155015500001156555055555695515555655A90100000000156A501
500040D444444440004444445444444454400444494440444449944454459959
84444400000459A944444440D015515500001101111501540155000151510000
00015655015516A955051000000001155555550040C444444444444440444440
444055404444004040400455944494559840444000400004454444594440C011
51110150000010100010005500001000500000015554155555A4001140000000
15505155655100C4444444444444444444444444594444440000400000559444
59999444044000400459944444994400C5111545510000001101110111550000
540000000000155155156A511001000000012A951105655100C4444554404004
4044444444445440004000004000000444545599944444400000545994404599
4400D010155150100050511050111010000500000010000000115555AA555100
00001165A5540011655000D44444444444044444444444404444140004444400
0040444445999994444000449994444445994440D10101100000010115550101
000500000001515000000155555565555501000001565005166AAA5040D44440
4040404444559444444044400004459440000050995444595554444400449444
59AAEAEE9440D150000010001101555510100010000000115400000155555551
555555515000016566AAAAAABAA940C444444444004444445444444444440000
444854000894854444459984444440459AAEEEEEEEEEEE40C151000010001511
5555111010001500011559500016514055011555551155016AAAABABAAAAAAAB
00C4444040400044444454445440405440005559544059940054444555445555
99AAAAEEEAEAEAEAAA00C0500000000011511155115500101010100555115015
6000155015555156AAAAAAAAAABAAAAAAAAA00C4544040000444444444445544
444440040444444449440019444594599AAAAEAEEEEEEEEEEEEEAE00D1550000
0000010101151155010001400501000510155400155016566AAAAAAAAAAAAAAA
AAAAAAAA00D4544000404040404444559440444190004040444444440005445A
AAAAAAAAEAAAAAEAEAAAEAEAAA40D15400001150000010115555101001A40000
00115155500005556AAAAAAAAAAAAAAAAAAAAAAAAAAA40D44444044444444044
4455944444405404444044444844000999AAEEEAAAAEEEEEAAAAAAAEEEEEAE40
D001100115100000015555555501005001015000155561001AAAAAAAAAAAAAAA
AAAAAAAAAAAAAAAA40C04444004440400044555459944000404594A400585954
001AEAAAAAAAAAEAEAEAEAAAAAAAAAEAAA40C015500000000000115555555550
000016AA6900295564001AAAAAAAAAAAAAAAAAAAAAAAAAAAAAAA00C445440440
000444499995444544440055D9EE84595995001AEAAAAAAAAEAAAAAAAAA99AAA
EE9AAE00C51650010000000156AAA515155101006A6AABA5555A65001AAAAAAA
AAAAAAAAAAAAAAAAAAAAAAAA00C4458440400000405AE9A94455844000AEEEEE
E9555AA9401AAAAAAAAAEAA99AA9A9AAAAAAA9AAEA00D55151000000005056AA
A650556550006BFFFAAA555AA5402AAAAAAAAAAAAAAAAAAAAAAAAAAAAAAA00D4
44444000004444459A999459984000AEEEE9AE85999980599A9AAA9A99999999
9AAEAEEEA99AE940D500110000010150056BAA5115555400BBABA51B55155A80
6AAA6AAAAAAA6A6AAAAAAAAAAAAAAAAA40D444444000404054445AD59445EEA4
00A9A9445ED44459809999A99999A9A9AAAAAAA9AAA9A999A940D15151500010
0050006AA5506BFFA0006994006B90555691A5A6AAA6AAAAAAAAAAAAAAAAAAAA
AAAA40C444444444444444045A9445EEEEE400A9C4449FD8599A919999999999
A99AAA9999A999999A999940C1010155010151000016515BFBAAA401A955559F
9A5AAB915656666AAAAA6AAA666AAA6AA66AAAAA00C440445444405440404555
AFFEEAE845EED99AEFEA9AEE919999A9AAAA99999999999999A999A99900C500
15550101555001AAAABFFAAAA501BBFFFBABF6ABBAA16566AAAAAAAA656566A5
A6A6AAA6AAAA00C4444594444455944AEEAEEEEEAEA945EEEEFEEFE9AEEA9599
9999A999999999999999999999999900D5001551154115657FAAABFAAAAAAA01
AAAFFFBBFA6BAA926A666A6A66566666665666666A666A6A00D4405594444045
AAFEEAEEEAAAAAA941AEAEEDFEEE999595999999999999999999999999999999
9940D4005550555016ABFAAAABEAAAAAA611AAAAA5ABFA555556655665656565
65656566A6656566A6AA40D444444459459AEEEEAEEFEAAAA999549E95559AD4
4445559999999999999999999999999999999940D0010001666AAAAFAAAAAFAA
A6AA66A46A9A460151511556565656565656565656565656565A566A40C40054
46EAEAAAEEEAAAAE99999999A499944A40405455999999999999999995999999
999599999940C000556BFAAAAABFAAAABEA5A5A6A6A066551A90106015556555
65656565555555556565556565AA00C4445AEEEEAAAAEE9999AD999999999459
944A94444445599999999999999999999999999999999900C1156BFBAAAAAABE
AA66BA666AAA6A65165511511101655665566656665566565656665665566666
00C455AEEAAAA999FE9999F9A999A9999945A940A95549E95995999999999999
99999999999999999900D156BFAAAAAAA6BEA6A6FAAAA6AAA6A5416AB9BA556B
E5656565656565655565656565656565556500D49AEE9A999999AE999AE99999
999999849AEE9945AED4599999999999999999999999999999999940D56BFAAA
AAAA56BE66ABFAAAAAAA566A415ABBAF46AB955656565656565656565656565A
5555565640D9AAEA99A99995AEA99AFA99A99999998046EEEA99AED499999999
9999999999999999999999999940DAABEAA6A55565BEAAABFAA6AAA665A50016
BBA556AA95656565656565656565555565656565656540CEAEE999999999AE99
9EE999999999980045EEE99AEE85999999999999999999999999999999999940
CA6BAA6665566ABEAAABFAAA6A6666600001BFBBFFBA515666566A6666566656
565666666656565600C9AEE999999599AEA9AFE9A9999999940000AEFFFEE944
599999999999999999999999999999999900C6ABA565555566BEAAAFEAA6A6A6
A6A400006BFFFFE91015655565A666656565656565656565656500C9AE999999
9999AE99AFD9999999999400004AEEEED8440599999999999999999999999999
99999900D66FA6565556AA6FAABFEA6A6AAA66550000016A5A51000155565666
66565656565656565656565600D9AE99999995A9AEA9EED999A9999994400040
45554440005999999999999999999999999999959940D6ABA5656556A6AFAABF
A6AAAAAAA55064000011101110001565A6A666A6A565656566A56565656540D9
AE9999999999AE99EE999999999584AC44444444444000059999999999999999
9999999999999940D66E665656566A6F6ABFAAAAAAAA55506A00000115511000
002AAAAAAAA66A566A566AA66A666A5640C9AE9999999999AEAAFEAAAAEEEE55
445E40404444444000005AEEEEEEEAA999999999A99999999940C57E65556566
AAAFAAFFAABBFFF955501B400000555010001166ABFFFBFBFABAAAA6A6AAA6A6
A56600C9AD9999999999AE9AEEEEEEEEE959444AC444444444400045599AEEEE
EEEEEEEEEEEAA99999999900C57E6656666AAAAFABFFFFFFFFA5564006A00001
11150000155AA66FFFFFFFFFFFBFBBBFAAAAA65600C5AE9999A999AAEFEFFFFE
EEFE99594445E44440444440004999999AFEEEFEEEFEEEFEEEFEEEE99900D5BE
A6A6AAAABBFFFFFFFFFBFAA5554001BA1010515000005656AAA6BABBFFFFFFFF
FFFFFFFFFBBA00D9AEEEEEEEEEEEEFEFFEEEEA9999594400AE4444444440004A
99999985599AEEEEEEFEEEEEEEEEEE40D56FFFFFFFFFFFFFFFFFAA5166655501
005B91011501000016656A66640015556BBFFFFFFFFFFFFF40D9AFFFFFFFFFFF
FFFFFE944599995454405AD444444440004599999999444044445AEEEEFEFEFF
FE40D5BFFFFFFFFFFFFFFFFF9015655555940016A0115110000056AAA5A56550
000000005155AAFFFFFF40C9EEEEEFFFEEFEEEEEEE8459999955944405E44444
440000419DA94599999944444440000459EEEE40C6BFFFFFFFBFFF5556655155
566556950005650511000001119AAA40555ABBAAAAAAA4000000016A00CAFEFE
EEFEEEAE0000004999959999A850005844444000444099AAD45959EEEEEEEEED
000000000400CBFFFFFBBBF52F00000025555566AAB950000501500001550096
AAE56555AAAAAABBB9000000000000CFFFEEE99AD00E40000098999999EA9844
40004000000944009AADD999894444555994000000000000DFFFFA502A400B90
0006A955555AA659150000100000150000566AA6655640000000000000000000
00DFFED400A80006E455A999599499A9984440000400004000005699A9999594
40000000000000000040DFFFA401A40016A6BFE6A500005AAAA9155000000000
00000066AAB9A5555010000000000000000040D9999845959AEEFFFF99998001
5EA99D04440000000000000069EAAD99859444000000000000000040D0011106
BBBFFFFFFF6A6640025AAA9A1550000000000000002AAA6E6555551000000000
0000000040C000006EFFFFFFFFFD999990599AA99A455000000004000000199A
9D99945444000000000000000040C0001AFFFFFFFFFFFAA6655566A6A9A64550
0000000000000019A6AA65555550000000000000000000C00AFFFFFFFFFFFFD9
99999599DA9DAA454000004004000000499ADE99585954000000000000000000
C1BFFFFFFFFFFFFFA656655166A6AAAA5500000010000000010AAAAB55551555
000001000000000000CAFFFFFFFFFFFFFD5599959899E9EAA940004400040000
004445A9DA9958559995999AFE9000000000DFFFFFFFFFFFFFF95555655565BA
A6655000100000500010115165A695555566AAAAABFFFA40000000DFFFFFFFFF
FFFFF85595999959A9DA9944044444000044444445A9AAD95945599AAAEFFFFF
E4000040DFFFFFFFFFFFFFF555565555156AA6AA100501000000011511126AA6
9555551AAAAAABFFFFF9000040DFFFFFFFFFFFFFE4545595555559EA99440444
4444404444444599A5D5559559A9AAEAFFFFFE800040DFFFFFFFFFFFFFF15565
5555555AA699551051100140015110516AA6A55555655566A6BFFFFFE00040CF
FFFFFFFFFFFFE444544445499DA999444444444444444444449AA99955945844
44446EFFFFE40040CFFFFFFFFFFFFFD555555555455A6AA61511151101011101
11115A6AA555551400000016ABFFF80000CFFFFFFFFFFFFFD454545455459DA9
D5444444444044444444445AA9A55594580000000045FFFD0000CFFFFFFFFFFF
FFD555555451515AAAA65150101000515011515016A97555506500000000105B
FF0000CFFFFFFFFFFFFE8444545444445A99A9444444444444444444444A9DA9
45545900000000044AFE4000DFFFFFEBFFBAA65555151514555A6A6651150101
01050101111106AA69555115000000000101FF8000DFFFFECAA9944444454454
44545699A9444444444444444444444599A9444058400000004444BFD040DFBA
A551501000555155154515566AB95011501010101010515151AA695541144000
000010107FF040D9544444400000459484454444469EA9444444444444444444
4445999D4444588000000004445FE440D5000000000001555151150101566A65
5101110110111101111112AAA95115155000000001111FF840C4404040444444
5594404540404599994444444444544440444444AA9D5444549040400000444A
FD40C0101011515151555150515041519A6A501110101010100010101066AA51
101550000000001552FF00C4444444444444459494444444459A9D4444444444
44444444444469DA94445594444444404445FE00C15555151115155555541050
0115AA5941010101011101150114016A97550011565A6655000501FF00C44454
4444444444545404440445DA994444444444444444444040699A9444519AEAE9
94444044EF00D055515151515555555504140151A6AA50101010001050115015
5529969510516ABAFA555400507F00D444444444444444495444444445DA9A44
4444444444444444444459999444419EEEED999444446F40D115555115111515
155501010101AAAA41011101010011011505551A669510515BBBBA555500151F
40D454444444444455455440404044E99A444440444044444444445449A99440
419AEEE9444440444F40D155555551515155515540101151B5A6500015500010
101050015156A695014156FBE9501000155B40C4444444444444594454404404
45A9DA844444444444444444455545A9D4404596EEE9444444444640C1555515
511551555155010101057AAA4015511001050100000015156695010156AFA555
1111011600C444544454444455444440404045B9EA8444544440444044444400
05A994014595EEE9955554444500C155515151555155505550101051BAA69155
5554000041501000000169A5010555AAA5655554111100C44444444444449944
4444440445AD9984444544444440444444000099A80405459995999994444400
D5555555551115555515101001516AA69511155100010101100100016AA51405
555556566555110100D4545454545444555454444400459DAAD4444440404444
444440400059A94405559995999444444440D555555551555165515550100055
5ABA90105000001110001000100069695015516695A6A500101040D454444444
4444599444440400559EA9844440004444444444444400599944495599999994
44444440D5555555515511565555500100555A6A510500000001010000000000
16695015526A566A6500000040C4545444544444599444540000459A9A944000
00404444444440400015594055559995999440400440C5555555555550505555
5000005556AA61000000001000100000000016695055515695AAA500000000C5
544444444444445544444400455A9D9404444444444444444040001AAD444445
5999999844000400C555555555111515155155000015569A6001110000001100
00000000165A5540155666A6A500000100C55454545454545404445440005595
99944444404044444404400000055A5440549999A99840000000D55555555551
551540115500001555AA511010000010505000100000059A51001166A5AAA500
000000D55444444454444540044440004599DA90444444444444444444444445
9A4400459599999944000040D555555515515515500110400005559A50010001
0000011500010100015655015151566AA500000040D444544444445545440040
400045559A9040404000444444404444444086840445459999A940000040D555
51515151551510000010000555A6500000000010101000100010019651015005
66AAA500000040C44444444444454444000004044595A9944400444444444440
44444401958440400999999844000040C5555515555115011100000000055566
A0000000110011010001000001569501001555555500000000C4545454544455
4454400000000555A99440404044404444444444000055D44440594044400000
4000C55555555551555150000000001555699000000010101151000000000052
9550016540000000000000C4444444444444445444000004055559D440444444
4044444004400000558444059940000000000500D00000000015155555000000
0105555AA4000001010011050000000000669114166500000000000100D00000
00004444445440000004055549A4004040444044444000400000559444599940
000000000140D000000010501150550000000115555964000000010011814000
100000556551501540000000000140DEAAAAAA994444444540000004455559A4
044000044044444400440440549444000440000000000540DFFFFFFFFF551501
1540000001155556640000001501050150000000002665100155400000000005
40CFFFFFFFFE9444444440400000459595A400000044404444444040000058A4
44059440000000000440CFFFFFFFFF5550001150000001555552640000005000
00515000000001156550556510000000001400CFFFFFFFFE5444444454000004
45555594000004444444444444004040089845999444000000005400CAAAAAAA
AA54000001140000011555555500000111010115100000000119551555540000
0000005000C04040444440000040450000444555549800000444004044444040
4040485844404404000000008000D0000000014000001001400050555554A900
0011500001115000001000055951015014000000014000D00000000044444005
4450004445555498000044444444444444400400455944494418000000014040
D000000001555510015115001115555565000111100001111100000101456951
554064000000060040D444444444599595504400404455555559444444440040
44444040404445A954554194000000090040D555555554156555555000101055
555516115151500010501000000011466A55501554000000090040C554544554
059955544000004445555449444444444444444444440444459A544009944000
00580040C5555555540155000000000011155555060501150001015501010000
01625B55000551400000240000C5555555540055400000440044555545494444
44400444444444444040515A84555445800000A40000C5555555540011540055
54001055555545115151000010501010100000119695555151500000A00000C4
44444454444004599544004455555585444444444444444444444440549A8445
4445900000D00000D55555555555000015510001115555555241150100010001
1101150000155695011015540002800000D45444445454400000400000445555
55514444444044404440444444405495D4404054440006400040D15150511150
0000010000015155555551405150001000101000101010156695140155540006
000040D444444444400004580440054455555954844444444404444444444444
449584400594480009000040D101010101000155540000055155555554411110
000000051000000001155195401415140019000040C040404040455555940000
044455559594405444400040444440004044485494404054580018000040C000
0000001555555000005151555555545151100000001100100000011965654541
50140064000000C0554005540055400554005540055400554005540055400554
00554005540055400554005540055400FFFFFFFFFFFFFFFFFFFFFFFFFFFFFFFF
FFFFFFFFFFFFFFFFFFFFFFFFFFFFFFFFFFFFFFFFFFFFFFFFC0


grestore
